:020000040800F2
:104000000000011021590008C1BF0008E1BF0008ED
:10401000415A0008415A0008415A0008415A000814
:10402000415A0008415A0008415A0008615A0008E4
:10403000415A0008415A0008415A0008615B0008D3
:10404000415A0008415A0008415A0008415A0008E4
:10405000415A0008415A0008415A0008E175000819
:10406000415A0008415A0008415A0008415A0008C4
:10407000F18B0008415A0008C18B0008415A000822
:10408000415A0008415A0008415A0008415A0008A4
:10409000415A0008415A0008415A0008415A000894
:1040A000415A0008415A0008415A0008415A000884
:1040B000415A0008415A0008415A0008415A000874
:1040C000415A0008415A0008415A0008415A000864
:1040D000415A0008415A0008415A0008415A000854
:1040E000415A0008415A0008415A0008415A000844
:1040F000415A0008415A0008415A0008415A000834
:10410000415A0008415A0008F1ED0008415A0008E0
:10411000415A0008415A0008415A0008415A000813
:1041200071850008318B0008918B0008E18500083B
:10413000415A0008415A0008415A0008415A0008F3
:10414000415A0008415A0008415A0008415A0008E3
:10415000415A0008018B0008618B0008415A000891
:10416000415A0008415A0008415A0008415A0008C3
:10417000415A0008415A0008415A0008415A0008B3
:08418000415A0008415A0008F1
:04418800D142000818
:1041900030B53E4B3E4A5A60002407229C6083B0F3
:1041A0001A6001F08DFD06F00BFD09F049FD04F0E9
:1041B00087FB06F02DFD374803F05AFA354936489B
:1041C00031F07EFB334835490CF0CAFEA04254DB87
:1041D00003F0AEFA324D286003F02AFE09F0D0FE5B
:1041E00009F01EFF09F084FF09F09AF909F018FAA6
:1041F0000CF0BEFB0BF034FB0AF0A2FF0BF028FF23
:1042000007F006FA0CF04CFF2B68002BAABF2146E2
:1042100024482548254CB8BF022109F059FD2448FF
:10422000022109F055FD0221224809F051FD03F059
:10423000BFFAA06032F01CFD0221E060204609F0C8
:1042400047FD1D48022109F043FD1C48002109F0EB
:104250003FFD1B48002109F03BFD0CF049FE02AA7E
:10426000002342F8043D4FF47F40042106F0A0FEF5
:104270004EF6602002F0E4F9FAE71248074931F0FF
:104280001FFB4EF6602002F0DBF9FAE710E000E0D9
:104290007FFF0100D01D0120D01B0408F01B040883
:1042A000101E0120A01F0020C01F0020801F002022
:1042B00040200020E01F00200020002020200020BF
:1042C000601F0020F81B0408AFF30080AFF30080EC
:1042D000024B13B1024836F0CBBF7047000000001C
:1042E00091C2030800000000000000000000000070
:1042F000844641EA000313F003036DD1403A41D3F1
:1043000051F8043B40F8043B51F8043B40F8043BAF
:1043100051F8043B40F8043B51F8043B40F8043B9F
:1043200051F8043B40F8043B51F8043B40F8043B8F
:1043300051F8043B40F8043B51F8043B40F8043B7F
:1043400051F8043B40F8043B51F8043B40F8043B6F
:1043500051F8043B40F8043B51F8043B40F8043B5F
:1043600051F8043B40F8043B51F8043B40F8043B4F
:1043700051F8043B40F8043B51F8043B40F8043B3F
:10438000403ABDD2303211D351F8043B40F8043BDF
:1043900051F8043B40F8043B51F8043B40F8043B1F
:1043A00051F8043B40F8043B103AEDD20C3205D3EF
:1043B00051F8043B40F8043B043AF9D2043208D0E7
:1043C000D2071CBF11F8013B00F8013B01D30B8859
:1043D00003806046704700BF082A13D38B078DD037
:1043E00010F003038AD0C3F10403D21ADB071CBF09
:1043F00011F8013B00F8013B80D331F8023B20F873
:10440000023B7BE7043AD9D3013A11F8013B00F8AB
:10441000013BF9D20B7803704B7843708B78837033
:10442000604670470000000000000000000000002F
:1044300040EA010C1CF0070F23D1BDF1100DCDE9AE
:104440000245CDE900676FF000064FF0000700BF9E
:10445000F0E80223F1E80245A24282FA46FCA7FAFC
:1044600086FC08BFBCF1000F40F0D780AB4283FA56
:1044700046FCA7FA86FC08BFBCF1000F40F0CA80DA
:10448000E6E710F0030C21D020F0030050F8042BD5
:104490005FEACC7C08D00FD211F801CB5FFA92F31F
:1044A000B3EB0C0C10D17BB111F801CB5FFAA2F386
:1044B000B3EB0C0C08D13BB111F801CB5FFAB2F3AE
:1044C000B3EB0C0C00D10BB960467047BDF1100D79
:1044D000CDE90245CDE900676FF000064FF0000717
:1044E00011F0030C2DD110F0040F0DD050F8042B57
:1044F00051F8044BA24282FA46FCA7FA86FC08BF98
:10450000BCF1000F40F0898011F0040F9FD051F8EA
:10451000045B00BFF0E80223AA4282FA46FCA7FA35
:1045200086FC08BFBCF1000F71D1F1E80245A3423F
:1045300083FA46FCA7FA86FC08BFBCF1000F63D1E2
:10454000E8E721F00301BCF1020F1ED03BDA51F87D
:10455000045B00BF50F8043B4FEA152583FA46FC84
:10456000A7FA86FCB7EB0C2F03EA162208BFAA4273
:104570004DD151F8045BBCF1000F82EA03034FEA0E
:10458000056208BF93423CD1E4E751F8045B00BFE9
:1045900050F8043B4FEA154583FA46FCA7FA86FC1F
:1045A000B7EB0C4F03EA164208BFAA422FD151F8CD
:1045B000045BBCF1000F82EA03034FEA054208BF27
:1045C00093421ED1E4E751F8045B00BF50F8043B6E
:1045D0004FEA156583FA46FCA7FA86FCB7EB0C6F29
:1045E00003EA166208BFAA4211D151F8045BBCF17C
:1045F000000F82EA03034FEA052208BF934200D16D
:10460000E4E719BA12BA0AE019BA22BA07E011BAF5
:104610002ABA04E019BA2ABA01E011BA22BA9CFAFD
:104620008CF0DDE90067DDE902451DF1100D38B1C0
:10463000B0FA80F0C0F1180021FA00F122FA00F27D
:104640000120914298BF8041704700BF00000000E8
:1046500081F0004102E000BF83F0004330B54FEA33
:1046600041044FEA430594EA050F08BF90EA020FA0
:104670001FBF54EA000C55EA020C7FEA645C7FEA33
:10468000655C00F0E2804FEA5454D4EB5555B8BF56
:104690006D420CDD2C4480EA020281EA030382EAC7
:1046A000000083EA010180EA020281EA0303362D59
:1046B00088BF30BD11F0004F4FEA01314FF4801C2C
:1046C0004CEA113102D0404261EB410113F0004F3E
:1046D0004FEA03334CEA133302D0524263EB4303F5
:1046E00094EA050F00F0A780A4F10104D5F1200E93
:1046F0000DDB02FA0EFC22FA05F2801841F10001EE
:1047000003FA0EF2801843FA05F359410EE0A5F1C1
:1047100020050EF1200E012A03FA0EFC28BF4CF0F2
:10472000020C43FA05F3C01851EBE37101F00045A8
:1047300007D54FF0000EDCF1000C7EEB00006EEBB5
:104740000101B1F5801F1BD3B1F5001F0CD349083F
:104750005FEA30004FEA3C0C04F101044FEA445296
:1047600012F5800F80F09A80BCF1004F08BF5FEA1D
:10477000500C50F1000041EB045141EA050130BDFD
:104780005FEA4C0C404141EB010111F4801FA4F1A0
:104790000104E9D191F0000F04BF01460020B1FAF5
:1047A00081F308BF2033A3F10B03B3F120020CDA2D
:1047B0000C3208DD02F1140CC2F10C0201FA0CF00B
:1047C00021FA02F10CE002F11402D8BFC2F1200C70
:1047D00001FA02F120FA0CFCDCBF41EA0C01904026
:1047E000E41AA2BF01EB0451294330BD6FEA04046F
:1047F0001F3C1CDA0C340EDC04F11404C4F120025A
:1048000020FA04F001FA02F340EA030021FA04F36B
:1048100045EA030130BDC4F10C04C4F1200220FAC2
:1048200002F001FA04F340EA0300294630BD21FA00
:1048300004F0294630BD94F0000F83F4801306BFC6
:1048400081F480110134013D4EE77FEA645C18BFBA
:104850007FEA655C29D094EA050F08BF90EA020F51
:1048600005D054EA000C04BF1946104630BD91EA49
:10487000030F1EBF0021002030BD5FEA545C05D14C
:104880004000494128BF41F0004130BD14F580048B
:104890003CBF01F5801130BD01F0004545F0FE41FF
:1048A00041F470014FF0000030BD7FEA645C1ABF34
:1048B000194610467FEA655C1CBF0B46024650EA6B
:1048C000013406BF52EA033591EA030F41F4002197
:1048D00030BD00BF90F0000F04BF0021704730B51D
:1048E0004FF4806404F132044FF000054FF00001F2
:1048F00050E700BF90F0000F04BF0021704730B5B3
:104900004FF4806404F1320410F0004548BF404287
:104910004FF000013EE700BF42004FEAE2014FEADC
:1049200031014FEA02701FBF12F07F4393F07F4FB7
:1049300081F06051704792F0000F14BF93F07F4FE9
:10494000704730B54FF4607401F0004521F000412C
:1049500020E700BF50EA010208BF704730B54FF0B2
:1049600000050AE050EA010208BF704730B511F0B7
:10497000004502D5404261EB41014FF4806404F1EF
:1049800032045FEA915C3FF4DCAE4FF003025FEA71
:10499000DC0C18BF03325FEADC0C18BF033202EBF9
:1049A000DC02C2F1200300FA03FC20FA02F001FA53
:1049B00003FE40EA0E0021FA02F11444C1E600BFF2
:1049C00070B54FF0FF0C4CF4E06C1CEA11541DBFA5
:1049D0001CEA135594EA0C0F95EA0C0F00F0DEF870
:1049E0002C4481EA030621EA4C5123EA4C5350EA55
:1049F000013518BF52EA033541F4801143F48013A6
:104A000038D0A0FB02CE4FF00005E1FB02E506F036
:104A10000042E0FB03E54FF00006E1FB03569CF08B
:104A2000000F18BF4EF0010EA4F1FF04B6F5007F91
:104A300064F5407404D25FEA4E0E6D4146EB060603
:104A400042EAC62141EA55514FEAC52040EA5E508C
:104A50004FEACE2EB4F1FD0C88BFBCF5E06F1ED836
:104A6000BEF1004F08BF5FEA500E50F1000041EB6D
:104A7000045170BD06F0004646EA010140EA02001A
:104A800081EA0301B4EB5C04C2BFD4EB0C0541EA3C
:104A9000045170BD41F480114FF0000E013C00F351
:104AA000AB8014F1360FDEBF002001F0004170BD75
:104AB000C4F10004203C35DA0C341BDC04F114048E
:104AC000C4F1200500FA05F320FA04F001FA05F21A
:104AD00040EA020001F0004221F0004110EBD370E7
:104AE00021FA04F642EB06015EEA430E08BF20EA13
:104AF000D37070BDC4F10C04C4F1200500FA04F3B6
:104B000020FA05F001FA04F240EA020001F0004147
:104B100010EBD37041F100015EEA430E08BF20EABA
:104B2000D37070BDC4F1200500FA05F24EEA020E02
:104B300020FA04F301FA05F243EA020321FA04F031
:104B400001F0004121FA04F220EA020000EBD370E8
:104B50005EEA430E08BF20EAD37070BD94F0000FE8
:104B60000FD101F00046400041EB010111F4801F1C
:104B700008BF013CF7D041EA060195F0000F18BFCD
:104B8000704703F00046520043EB030313F4801F09
:104B900008BF013DF7D043EA0603704794EA0C0FC3
:104BA0000CEA135518BF95EA0C0F0CD050EA4106D9
:104BB00018BF52EA4306D1D181EA030101F0004156
:104BC0004FF0000070BD50EA410606BF104619467E
:104BD00052EA430619D094EA0C0F02D150EA01368A
:104BE00013D195EA0C0F05D152EA03361CBF1046CB
:104BF00019460AD181EA030101F0004141F0FE416A
:104C000041F470014FF0000070BD41F0FE4141F4ED
:104C1000780170BD70B54FF0FF0C4CF4E06C1CEAED
:104C200011541DBF1CEA135594EA0C0F95EA0C0FA2
:104C300000F0A7F8A4EB050481EA030E52EA03355D
:104C40004FEA013100F088804FEA03334FF080557E
:104C500045EA131343EA12634FEA022245EA1115AB
:104C600045EA10654FEA00260EF000419D4208BF5C
:104C7000964244F1FD0404F5407402D25B084FEA09
:104C80003202B61A65EB03055B084FEA32024FF4B5
:104C900080104FF4002CB6EB020E75EB030E22BF12
:104CA000B61A754640EA0C005B084FEA3202B6EBD2
:104CB000020E75EB030E22BFB61A754640EA5C0081
:104CC0005B084FEA3202B6EB020E75EB030E22BF11
:104CD000B61A754640EA9C005B084FEA3202B6EB12
:104CE000020E75EB030E22BFB61A754640EADC00D1
:104CF00055EA060E18D04FEA051545EA16754FEA33
:104D000006164FEAC30343EA52734FEAC2025FEA50
:104D10001C1CC0D111F4801F0BD141EA00014FF0DF
:104D200000004FF0004CB6E711F4801F04BF0143B0
:104D30000020B4F1FD0C88BFBCF5E06F3FF6AFAECC
:104D4000B5EB030C04BFB6EB020C5FEA500C50F15C
:104D5000000041EB045170BD0EF0004E4EEA1131DF
:104D600014EB5C04C2BFD4EB0C0541EA045170BDE6
:104D700041F480114FF0000E013C90E645EA060E2A
:104D80008DE60CEA135594EA0C0F08BF95EA0C0F58
:104D90003FF43BAF94EA0C0F0AD150EA01347FF4A0
:104DA00034AF95EA0C0F7FF425AF104619462CE777
:104DB00095EA0C0F06D152EA03353FF4FDAE1046DA
:104DC000194622E750EA410618BF52EA43067FF42B
:104DD000C5AE50EA41047FF40DAF52EA43057FF4BB
:104DE000EBAE12E700000000000000000000000031
:104DF0004FF0FF3C06E000BF4FF0010C02E000BFA7
:104E00004FF0010C4DF804CD4FEA410C7FEA6C5C89
:104E10004FEA430C18BF7FEA6C5C1BD001B050EA2C
:104E2000410C0CBF52EA430C91EA030F02BF90EA17
:104E3000020F0020704710F1000F91EA030F58BFD6
:104E4000994208BF90422CBFD8176FEAE37040F038
:104E5000010070474FEA410C7FEA6C5C02D150EAD6
:104E6000013C07D14FEA430C7FEA6C5CD6D152EA91
:104E7000033CD3D05DF8040B704700BF8446104656
:104E800062468C461946634600E000BF01B5FFF755
:104E9000B7FF002848BF10F1000F01BD4DF808ED25
:104EA000FFF7F4FF0CBF012000205DF808FB00BFF6
:104EB0004DF808EDFFF7EAFF34BF012000205DF850
:104EC00008FB00BF4DF808EDFFF7E0FF94BF01209D
:104ED00000205DF808FB00BF4DF808EDFFF7CEFF9E
:104EE00094BF012000205DF808FB00BF4DF808EDDD
:104EF000FFF7C4FF34BF012000205DF808FB00BFAE
:104F00004FEA410212F5001215D211D56FF47873F1
:104F1000B3EB625212D94FEAC12343F0004343EA94
:104F2000505311F0004F23FA02F018BF404270476F
:104F30004FF00000704750EA013005D111F00040F9
:104F400008BF6FF0004070474FF00000704700BF8F
:104F50004A0011D212F5001211D20DD56FF47873F8
:104F6000B3EB62520ED44FEAC12343F0004343EA4D
:104F7000505323FA02F070474FF00000704750EA98
:104F8000013002D14FF0FF3070474FF00000704702
:104F90004FEA4102B2F1E04324BFB3F5001CDCF15B
:104FA000FE5C0DD901F0004C4FEAC0024CEA507093
:104FB000B2F1004F40EB830008BF20F001007047C2
:104FC00011F0804F21D113F13872BCBF01F00040C5
:104FD000704741F480114FEA5252C2F11802C2F1F7
:104FE000200C10FA0CF320FA02F018BF40F0010078
:104FF0004FEAC1234FEAD32303FA0CFC40EA0C002A
:1050000023FA02F34FEA4303CCE77FEA625307D166
:1050100050EA01331EBF4FF0FE4040F4400070479D
:1050200001F0004040F0FE4040F40000704700BF37
:1050300080F0004002E000BF81F0004142001FBF4D
:105040005FEA410392EA030F7FEA226C7FEA236C56
:105050006AD04FEA1262D2EB1363C1BFD21841404B
:1050600048404140B8BF5B42192B88BF704710F0E1
:10507000004F40F4000020F07F4018BF404211F084
:10508000004F41F4000121F07F4118BF494292EAEC
:10509000030F3FD0A2F1010241FA03FC10EB0C0018
:1050A000C3F1200301FA03F100F0004302D54942A5
:1050B00060EB4000B0F5000F13D3B0F1807F06D352
:1050C00040084FEA310102F10102FE2A51D2B1F14A
:1050D000004F40EBC25008BF20F0010040EA03003F
:1050E0007047490040EB000010F4000FA2F10102EC
:1050F000EDD1B0FA80FCACF1080CB2EB0C0200FA76
:105100000CF0AABF00EBC25052421843BCBFD040C3
:105110001843704792F0000F81F4000106BF80F43D
:1051200000000132013BB5E74FEA41037FEA226C00
:1051300018BF7FEA236C21D092EA030F04D092F0CB
:10514000000F08BF0846704790EA010F1CBF0020FF
:10515000704712F07F4F04D1400028BF40F000405C
:10516000704712F100723CBF00F50000704700F07C
:10517000004343F0FE4040F4000070477FEA2262A3
:1051800016BF08467FEA23630146420206BF5FEA74
:10519000412390EA010F40F4800070474FF0000374
:1051A00004E000BF10F0004348BF40425FEA000C3B
:1051B00008BF704743F0964301464FF000001CE0E3
:1051C00050EA010208BF70474FF000030AE000BF39
:1051D00050EA010208BF704711F0004302D5404277
:1051E00061EB41015FEA010C02BF844601460020E9
:1051F00043F0B64308BFA3F18053A3F50003BCFA04
:105200008CF2083AA3EBC25310DB01FA02FC6344B0
:1052100000FA02FCC2F12002BCF1004F20FA02F2B7
:1052200043EB020008BF20F00100704702F12002AA
:1052300001FA02FCC2F1200250EA4C0021FA02F20B
:1052400043EB020008BF20EADC707047000000005A
:105250004BB942B9002908BF002802D04FF0FF31F6
:10526000084600F0A5B882B0EC462DE9005000F0E9
:1052700087F8DDF804E002B00CBC704700000000C5
:1052800038B50022002304460D46FFF711FE28B969
:1052900020462946BDE8384000F032B8204605F1E6
:1052A000004100F02DF8404261EB410138BD00BFE4
:1052B00070B5FFF731FB00220D4B04460D46FFF79A
:1052C0007FFBFFF745FE0646FFF704FB0022094B74
:1052D000FFF776FB02460B4620462946FFF7BCF94E
:1052E000FFF736FE002242EA00042046314670BD38
:1052F0000000F03D0000F041000000000000000050
:1053000070B500220D4B04460D46FFF759FBFFF721
:105310001FFE0646FFF7DEFA0022094BFFF750FB9F
:1053200002460B4620462946FFF796F9FFF710FE86
:10533000002242EA00042046314670BD0000F03DE4
:105340000000F0410000000000000000000000002C
:105350002DE97043069E14461D468046894600F09E
:105360002FF804FB01F300FB0533A4FB00451D44AB
:10537000B8EB040469EB0505C6E90045BDE8708398
:105380002DE97043069E1446804689461D4600F06E
:1053900067F900FB05F504FB0153A0FB04451D4420
:1053A000B8EB040469EB0505C6E90045BDE8708368
:1053B000704700BF00000000000000000000000077
:1053C00000292DE9F00FC0F29F800024002BC0F2CD
:1053D0009680154606460F46002B3ED18A4257D985
:1053E000B2FA82F34BB1C3F1200201FA03F720FABB
:1053F00002F29D40174300FA03F6290CB7FBF1F2C5
:10540000330C01FB127CA8B243EA0C4700FB02F309
:10541000BB4209D97F1902F1FF3C80F00181BB42F8
:1054200040F2FE80023A2F44FF1AB7FBF1F3B6B206
:1054300001FB137146EA014100FB03F0884208D9E1
:10544000491903F1FF3780F0ED80884240F2EA808D
:10545000023B43EA0242002303E08B420AD90023C5
:105460001A461046194614B1404261EB4101BDE8AD
:10547000F00F7047B3FA83F8B8F1000F40F0848062
:105480008B4202D3824200F2DE8000230122E8E751
:1054900012B90123B3FBF2F5B5FA85F2002A39D12E
:1054A0007F1B280C1FFA85FC0123B7FBF0F1320C9F
:1054B00000FB117742EA07470CFB01F2BA4207D919
:1054C0007F1901F1FF3802D2BA4200F2C180414691
:1054D000BF1AB7FBF0F2B6B200FB127046EA00400A
:1054E0000CFB02FC844507D9401902F1FF3702D2B8
:1054F000844500F2AB803A4642EA0142B1E7E44318
:10550000524263EB430364E7404261EB41014FF0D9
:10551000FF345BE79540C2F1200327FA03F1280C22
:1055200026FA03F39740B1FBF0F81F433B0C00FB56
:1055300018111FFA85FC43EA01410CFB08F38B426A
:1055400006FA02F608D9491908F1FF3279D28B42DE
:1055500077D9A8F102082944C91AB1FBF0F3BFB208
:1055600000FB131147EA01470CFB03F2BA4207D9CB
:105570007F1903F1FF3160D2BA425ED9023B2F445A
:10558000BF1A43EA084390E7C8F1200203FA08FC77
:1055900025FA02F343EA0C0C4FEA1C4921FA02F304
:1055A00001FA08F720FA02F2B3FBF9F1174309FBFD
:1055B00011333A0C1FFA8CFB42EA03430BFB01FA4E
:1055C0009A4505FA08F008D913EB0C0301F1FF32F4
:1055D00035D29A4533D902396344CAEB0303B3FB8E
:1055E000F9F209FB1233BFB247EA03470BFB02F99A
:1055F000B94508D917EB0C0702F1FF331BD2B945A7
:1056000019D9023A674442EA0145A5FB0001C9EBFA
:1056100007078F424FF000030AD305D02A4620E740
:10562000624601E73B4614E706FA08F68642F5D2E1
:105630006A1E002315E71A46E5E70B46A0E7114668
:10564000CBE7904688E7434642460AE7023A53E7EB
:1056500002392F443CE700BF0000000000000000BA
:105660002DE9F00F144605460E46002B43D18A4221
:1056700053D9B2FA82F757B1C7F1200620FA06F6DD
:1056800001FA07F302FA07F41E4300FA07F5210CAA
:10569000B6FBF1F22B0C01FB1267A0B243EA0746FE
:1056A00000FB02F3B34209D9361902F1FF3780F04B
:1056B000F680B34240F2F380023A2644F61AB6FB73
:1056C000F1F3ADB201FB136145EA014100FB03F0C8
:1056D000884208D9091903F1FF3680F0E280884238
:1056E00040F2DF80023B43EA0242002310461946A3
:1056F000BDE8F00F70478B424AD8B3FA83F6002E0C
:105700004DD18B4202D3824200F2D6800023012287
:1057100010461946BDE8F00F704712B90124B4FBDA
:10572000F2F4B4FA84F2002A7CD1091B260CA7B249
:105730000123B1FBF6F02A0C06FB101142EA0141ED
:1057400007FB00F28A4207D9091900F1FF3C02D297
:105750008A4200F2C3806046891AB1FBF6F2ADB20C
:1057600006FB121145EA014507FB02F7AF4208D9D3
:105770002C1902F1FF3180F09680A74240F293800D
:10578000023A42EA004210461946BDE8F00F70475F
:1057900000231A4610461946BDE8F00F7047C6F1BF
:1057A000200522FA05F4B3401C434FEA144821FABD
:1057B00005F301FA06F720FA05F5B3FBF8FC2F43D1
:1057C00008FB1C333D0C1FFA84FA45EA03430AFB2D
:1057D0000CF9994502FA06FB04D91B190CF1FF32AA
:1057E0006DD39446C9EB0303B3FBF8F508FB1533FF
:1057F000BFB247EA03470AFB05F8B84504D93F1989
:1058000005F1FF3361D31D4645EA0C4CACFB0B237D
:10581000C8EB07079F424FF0000549D345D06246C9
:105820002B4663E79440C2F1200321FA03FC260CC7
:1058300020FA03F301FA02F5BCFBF6F843EA05018E
:105840000B0C06FB18CCA7B243EA0C4C07FB08F381
:10585000634500FA02F509D91CEB040C08F1FF328C
:105860003AD2634538D9A8F10208A444C3EB0C0C22
:10587000BCFBF6F389B206FB13CC41EA0C4107FBF3
:1058800003F28A4207D9091903F1FF3022D28A4272
:1058900020D9023B2144891A43EA084349E73A46A2
:1058A0000CE733461FE70A466BE7B0409042B6D29A
:1058B0000CF1FF32002319E73346324616E79945CB
:1058C0008FD9ACF1020C23448CE7B8459BD9023D3B
:1058D000274499E70346DEE79046C7E702382144AC
:1058E0003AE700BF000000000000000000000000D8
:1058F000704700BFAFF30080AFF30080AFF30080CC
:10590000704700BFAFF30080AFF30080AFF30080BB
:10591000FEE700BFAFF30080AFF30080AFF300807D
:1059200072B6374880F30988364B37491A684FF00A
:10593000404442F470021A600C600023E1EE103A19
:1059400006228B6082F31488BFF36F8F2F4B304A8F
:1059500093420BD2D943114421F0030119444FF073
:105960005532043B43F8042F8B42FBD1294B834231
:105970000CD229491A1D891A21F0030119444FF04C
:105980005532043B43F8042F8B42FBD1FFF7B0FFA5
:105990002249234B99420BD2C843184420F00300FC
:1059A000204C04300023E258CA5004338342FAD119
:1059B0001D4B1E4A93420AD2D943114421F00301E0
:1059C00019440022043B43F8042F8B42FBD1184DAD
:1059D000184CFFF795FFAC4204D254F8043B9847AB
:1059E000AC42FAD3144D154CFEF7D2FBAC4204D2B4
:1059F00054F8043B9847AC42FAD3FFF789FF00BF45
:105A00000010001088ED00E034EF00E000FC001012
:105A10000000011000000010031000100000002022
:105A2000002E0020D8520408002E0020B8EA0120E1
:105A30008C410008884100088C4100088C41000816
:105A4000FEE700BFAFF30080AFF30080AFF300804C
:105A500000F0FEF900F014FD00F012FA00DF00BFC4
:105A6000EFF30982064BD2F8CC105960996868317F
:105A70006832996082F30988002383F311887047A4
:105A800030EF00E0AFF30080AFF30080AFF30080B1
:105A900008B5094B094A0A4999600720DA601021C4
:105AA00000F0E6F80A20202100F0E2F80B20802127
:105AB000BDE8084000F0DCB800ED00E00003FA05A6
:105AC00000400008AFF30080AFF30080AFF3008028
:105AD000202383F311881A4B5B6813F4006322D0F0
:105AE000EFF30983A3F1680282F3098815494FF0A7
:105AF00080708A6943F84C0C92F823000968926818
:105B0000896898B1914294BF00220122A2B10E4A45
:105B100043F8502CF1EE10FA0C4A5168596641F0E6
:105B200001015160704783F311887047914234BF7F
:105B300000220122002AEAD1054A43F8502CEBE763
:105B400000ED00E0E4330020515A000830EF00E09F
:105B50005C5A0008AFF30080AFF30080AFF3008021
:105B600008B500F0D5F9202383F3118800F0A0F9DF
:105B700000F0DEF800F0B4F9002383F3118800F0A0
:105B8000E7F9BDE80840FFF7A3BF00BFAFF300800F
:105B90002DE9F04F2DED108AC1F80CD0D0F80CD0C3
:105BA000BDEC108ABDE8F08FAFF30080AFF300804A
:105BB00008B500F065F9002383F311882846A04753
:105BC00000F07EFD08BD00BFAFF30080AFF30080A2
:105BD00020F0030202F1604202F56142F0B4430991
:105BE00000F00304D2F80053E400FF269B00A64017
:105BF00003F1604325EA060503F561430127A1404F
:105C000000F01F0007FA00F045EA0104C2F8004363
:105C1000C3F88001F0BC1860704700BFAFF300808C
:105C2000410930B4203100F01F0401250C4A20F056
:105C3000030305FA04F403F1604342F8214003F53D
:105C4000614300F00300D3F80023C000FF2101FAF4
:105C500000F022EA0000C3F8000330BC704700BF28
:105C600000E100E0AFF30080AFF30080AFF300800D
:105C700020F0030303F1604303F56D4300F00300DC
:105C800010B4C0009A69FF24844022EA04028140D3
:105C90000A439A615DF8044B704700BFAFF3008080
:105CA000024B034A9B699A61FEE700BFE433002080
:105CB000A0FD0308AFF30080AFF30080AFF30080D6
:105CC00030B583B0FFF7E4FE00F0FAF900F090F988
:105CD00001F0DEF801F024F900F062F840210E48EE
:105CE0000E4C00F0DDFB01250D4BC36180F8205008
:105CF000A06100F095F8002383F3118862B6A269D1
:105D000008499161084800932A46084B4FF4B07146
:105D100000F05EFC03B030BD002E0020E433002014
:105D200000000010A0FF0308602E0020A15C000806
:105D3000F8B500F02DF9164B9B6993F8232012B1AA
:105D4000013A83F823205A6A124D01325A62EB68F5
:105D50002C680133AC42EB6018D0A768013FA76004
:105D6000A7B92368E668E7605D602B6000F0B8F8CB
:105D7000002383F311882069B047202383F311881F
:105D800000F096F82C68A368002BEAD0F8BD00BF9D
:105D9000E4330020D4330020AFF30080AFF3008061
:105DA000034A1346402143F8081B5360704700BF65
:105DB000C42F0020AFF30080AFF30080AFF300806A
:105DC0000C4A0D495368896910B40C4CE4681C6096
:105DD0005960816A996090F820101973103302F5A8
:105DE00081618B4228BF02F1080353605DF8044BC8
:105DF000704700BFC42F0020E4330020D4330020BC
:105E000008B5034B01460348196006F061F800BF6E
:105E1000D0330020B0FD0308AFF30080AFF3008063
:105E200008B5054B1B681BB9044B1B6803B908BDBB
:105E30000348FFF7E5FF00BFC02F0020CC33002050
:105E4000ECFD0308AFF30080AFF30080AFF30080F8
:105E500008B5064B1B682BB9054B1A6812B901220D
:105E60001A6008BD0348FFF7CBFF00BFC02F00201A
:105E7000CC330020F4FD0308AFF30080AFF30080C3
:105E800008B5064B1B682BB9054A1168002901DDCE
:105E9000136008BD0348FFF7B3FF00BFC02F002009
:105EA000CC330020FCFD0308AFF30080AFF300808B
:105EB00008B5064B1B68002B05DD054B1A6812B9A7
:105EC00001221A6008BD0348FFF79AFFC02F002087
:105ED000CC33002004FE0308AFF30080AFF3008052
:105EE00008B5074B1B68002B06DD064B1A68002A15
:105EF00002DD00221A6008BD0348FFF781FF00BFE2
:105F0000C02F0020CC3300200CFE0308AFF300802C
:105F100008B5202383F31188074A1168002907DB9D
:105F2000064B1B6823B90131116083F3118808BD4A
:105F30000348FFF765FF00BFC02F0020CC330020CF
:105F400014FE0308AFF30080AFF30080AFF30080CE
:105F500008B5202383F31188074A1168002907DD5B
:105F6000064B1B6823B90139116083F3118808BD02
:105F70000348FFF745FF00BFC02F0020CC330020AF
:105F80001CFE0308AFF30080AFF30080AFF3008086
:105F900008B5064B1B68002B04DB054B1B68002B68
:105FA00000DD08BD0348FFF72BFF00BFC02F002016
:105FB000CC33002024FE0308AFF30080AFF3008051
:105FC00008B5054B1B6823B9044B1B68002B00DD8B
:105FD00008BD0348FFF714FFC02F0020CC3300207A
:105FE0002CFE0308AFF30080AFF30080AFF3008016
:105FF000044B4FF0FF3100225B601B609960DA6058
:10600000704700BFD4330020AFF30080AFF30080AF
:10601000F8B505460C4616461F46FFF7B9FFCDB149
:10602000C6B1BCB10D492F610B68EE609A6894420D
:1060300004D91B68A41A9A68A242FAD35A686A6003
:106040008B422B605D601560AC6002D09A68141BB7
:106050009C60F8BD0248FFF7D3FEE3E7D43300208D
:1060600040FE0308AFF30080AFF30080AFF3008081
:1060700010B50446FFF78CFF84B1E36893B1236841
:106080000A4A934203D09968A2680A449A606268F7
:106090001360236800215A60E16010BD0448FFF7D7
:1060A000AFFEEAE70348FFF7ABFEE8E7D433002092
:1060B00050FE030860FE0308AFF30080AFF30080DA
:1060C000034B00225B601B605B611B619A60704741
:1060D000E4330020AFF30080AFF30080AFF3008023
:1060E00010B50446FFF754FF94F820308BB10E2B07
:1060F0000FD00022A168094B84F820201B689A6801
:106100008A42FBD25A686260236020465C60146059
:1061100010BD0348FFF774FEEBE700BFE433002037
:1061200080FE0308AFF30080AFF30080AFF3008080
:1061300010B52023044683F31188FFF7B9FE94F8C5
:1061400020300D2B11D8DFE803F016101007100BCC
:10615000101010101010100BA36A9A6801329A6088
:1061600094E80C001A60226853604FF0FF33A3627A
:106170002046FFF7B5FFFFF7B3FE002383F3118836
:1061800010BD00BFAFF30080AFF30080AFF300801D
:106190002DE9F84C1D4E0446FFF712FF3368B7692E
:1061A0001A6887F820400121142087F823005660E0
:1061B000384683F820103260B361FFF701FE144BBC
:1061C000B0695A6882651349BB6DD7E91445D1E9B6
:1061D00000ABD21AA4184FF0000345EB030512EBF5
:1061E0000A0243EB0B03C1E90023FB69ADF1640C28
:1061F0006345C7E9144503D90748FFF701FEB069B5
:106200003946BDE8F84CFFF7C3BC00BFE4330020BB
:10621000001000E0481D012094FE0308AFF3008049
:1062200070B50C4686B00646FFF7CAFE631C12D056
:106230000D4D0E4AAB69214601A8FFF7E9FE304635
:10624000FFF7A6FF049B13B101A8FFF711FFAB698D
:10625000986A06B070BD044D3046FFF799FFAB69F0
:10626000986A06B070BD00BFE433002031610008B9
:106270002DE9F843254C80460D46FFF7A1FEA069A5
:10628000D8F808308268C8F82850934230D9FFF710
:1062900027FF012388F820308146C4F81880FFF7D3
:1062A0008FFD1B4B5E68C8F85860B9F1000F13D022
:1062B0001849D9F85800D9E91445D1E90023361A0C
:1062C000A4194FF0000745EB0705921943EB0703AC
:1062D000C9E91445C1E90023D9F81C30ADF16402C5
:1062E00093420AD840464946BDE8F843FFF750BC00
:1062F0004046BDE8F843FFF7F3BE0748FFF780FDCF
:1063000040464946BDE8F843FFF742BCE43300206D
:10631000001000E0481D012094FE0308AFF3008048
:106320002DE9F84C1C4E3368B7691A6832601421A5
:1063300001245660384683F8204087F82310B36163
:10634000FFF7CEFE3846FFF73BFD144BB0695A68A5
:1063500082651349BB6DD7E91445D1E900ABD21A68
:10636000A4184FF0000345EB030512EB0A0243EBC0
:106370000B03C1E90023FB69ADF1640C6345C7E978
:10638000144503D90748FFF73BFDB0693946BDE81E
:10639000F84CFFF7FDBB00BFE4330020001000E025
:1063A000481D012094FE0308AFF30080AFF3008086
:1063B0002DE9F84C214C2268A7691368B96823605D
:1063C000012500205C6082F820501346A26187F806
:1063D000200000E01B689A688A42FBD85A687A60FD
:1063E0003B6038465F601760FFF7EAFC144BA0691A
:1063F0005A6882651349BB6D104ED7E91445D1E93F
:1064000000ABD21AA4184FF0000345EB030512EBC2
:106410000A0243EB0B03C1E90023FB69ADF1640CF5
:106420006345C7E9144503D90748FFF7E9FCB0699C
:106430003946BDE8F84CFFF7ABBB00BFE4330020A2
:10644000001000E0481D012094FE0308AFF3008017
:1064500008B5FFF7B5FD064B1A689B6992689B6803
:106460009A4200D808BDBDE80840FFF7A1BF00BFB1
:10647000E4330020AFF30080AFF30080AFF300807F
:10648000044B9B6993F823300BB1FFF791BFFFF7E3
:1064900047BF00BFE4330020AFF30080AFF30080BC
:1064A0002DE9F003184EDFF864C0776941640025D8
:1064B0004FF0020814220123816080F8208080F8C8
:1064C000232080F8223080F82150C5634562DCF833
:1064D00004C0476100F12C0900F1600800F13001AF
:1064E0000022002306610564706185613861C0F88F
:1064F0002C90C0F81C80C0E91423C0F858C0416338
:106500000163BDE8F0037047E4330020001000E0B1
:106510002DE9F04704460E4617469846FFF738FD2A
:1065200014B1B6F5A87F3ED22248FFF769FCA6F168
:1065300064012144204E089B204DDFF884A0E160D7
:1065400000204FF002094FF0140C0122C1F84080E6
:106550004B640D6675696764A76084F82100E06389
:10656000606284F823C084F8222084F82090DAF84E
:106570000480266104F1300104F12C0C04F1600761
:106580000022002365612064A061746120462C61B3
:10659000C4F85880C4F82CC061632163E761C4E982
:1065A0001423BDE8F0877F2FBED8B8F1000FBED10D
:1065B000BAE700BFB0FE0308E4330020B15B000877
:1065C000001000E0AFF30080AFF30080AFF3008075
:1065D0002DE9F04F83B080460C9F894693469A463A
:1065E00000F160050446FF2604F8016BA542FBD1CB
:1065F00008EB0904A54204D2552605F8016BA54213
:10660000FBD1202383F31188FFF722FC53465A461F
:10661000494600974046FFF77BFF00210446FFF7FD
:1066200027FEFFF72DFC002383F31188204603B0DB
:10663000BDE8F08FAFF30080AFF30080AFF30080D0
:1066400010B5044610B90948FFF7DAFB202383F39D
:106650001188FFF7FDFB21460620FFF7E1FDFFF75C
:106660000FFC002383F3118810BD00BFF0FE030868
:1066700038B5104B9C692546A06255F82C0FA842EE
:1066800006D00368E362FFF72BFDE06AA842F8D169
:1066900094F821309B0704D1636922691A61226949
:1066A00053610E20FFF774FD0348BDE83840FFF743
:1066B000A7BB00BFE433002000FF0308AFF3008056
:1066C00010B52023044683F31188FFF7C1FB204651
:1066D000BDE81040FFF7CCBFAFF30080AFF3008000
:1066E00038B50446202383F31188FFF7B1FB94F8F3
:1066F0002230BBB1013BDDB284F82250FFF7C0FB72
:10670000002383F311881DB994F820300E2B00D09C
:1067100038BD94F8213003F00303012B08D0022B7D
:1067200010D038BD0D48FFF76BFB94F82230E1E73D
:10673000636922691A61226920465361BDE83840C5
:1067400000F0FEBB636922691A612269A06C536183
:106750002146BDE8384000F0B3BC00BF64FF030829
:1067600010B5202383F31188FFF772FB064B1C69D9
:1067700094F82230013384F82230FFF781FB0023A4
:1067800083F31188204610BDE4330020AFF300806E
:1067900038B50546202383F31188FFF759FB2C6990
:1067A0000D4B9C4216D094F82230FF2B0CD00133B5
:1067B00084F82230FFF764FB002383F31188284616
:1067C000FFF78EFF204638BD0448FFF719FB94F809
:1067D0002230ECE70024EDE7E4330020C0FF03089B
:1067E00038B504460D4628B1002903DB64602460F7
:1067F000A56038BD0348FFF703FB64602460A56013
:1068000038BD00BFE0FF0308AFF30080AFF30080A6
:1068100070B504460E46FFF7BBFBFCB1002E1DDB36
:10682000A5682368002D16DBA34203D00D48FFF7AF
:10683000E7FAA5680135002DA6600BDC6FF00106B4
:106840006068436863601C60FFF74AFC0135012DF6
:106850008662F5D170BDA342ECD1E7E70248FFF7AD
:10686000CFFADDE700000408F0FF0308AFF3008073
:1068700038B505460C46202383F31188FFF7E8FA64
:1068800028462146FFF7C4FFFFF7E2FDFFF7F8FABD
:10689000002383F3118838BDAFF30080AFF300808D
:1068A00038B50446FFF78CFB1CB3A3682268002BA5
:1068B0000BDBA24203D01148FFF7A2FAA368013B09
:1068C000002BA36007DB002038BDA242F3D0013BC0
:1068D000002BA360F7DA0A4DAB699C6262685A60CC
:1068E0001C60032063601360FFF752FCAB69986A79
:1068F00038BD0448FFF784FAD7E700BF2400040836
:10690000E433002014000408AFF30080AFF30080EC
:1069100010B52023044683F31188FFF799FA204627
:10692000FFF7BEFF0446FFF7ABFA002383F311889D
:10693000204610BDAFF30080AFF30080AFF30080BE
:1069400038B504460D46FFF73BFB24B3A368226825
:10695000002B0BDBA24203D01348FFF751FAA368C8
:106960005A1E002AA26007DB002038BDA242F3D0E5
:106970005A1E002AA260F7DA8DB10C4B9B699C620B
:1069800062685A601C602946636003201360BDE89A
:106990003840FFF745BC0648FFF732FAD6E7A36058
:1069A0004FF0FF3038BD00BF50000408E433002032
:1069B00038000408AFF30080AFF30080AFF300802D
:1069C00038B505460C46202383F31188FFF740FABB
:1069D00021462846FFF7B4FF0446FFF751FA00238B
:1069E00083F31188204638BDAFF30080AFF30080F9
:1069F00010B5044640B3A368002B236814DBA34200
:106A000002D01348FFF7FCF9202383F31188FFF726
:106A10001FFAA3680133002BA36008DDFFF730FAEB
:106A2000002383F3118810BDA342EDD1E9E720686C
:106A30000368236000215C60FFF71AFCFFF720FA6F
:106A4000002383F3118810BD0248FFF7D9F9D2E77C
:106A50007800040868000408AFF30080AFF30080FA
:106A600010B50446FFF794FAFCB1A3682268002B26
:106A70000ADBA24203D00F48FFF7C2F9A368013333
:106A8000002BA36006DD10BDA242F4D00133002B21
:106A9000A360F8DC23681A682260002154609962C0
:106AA0001846BDE81040FFF71BBB0348FFF7A8F9E5
:106AB000DBE700BFA00004088C000408AFF30080EF
:106AC00010B5044620B1002364602460A36010BDAB
:106AD0000148FFF795F9F6E730010408AFF30080AD
:106AE0003B4B70B505469C69FFF76AFA002D6BD0E9
:106AF000A868002836D0A2688368934207D290F82D
:106B000020308260042B46D0052B30D0FBB12B46C1
:106B100003E09968A268914202D31B689D42F8D1B4
:106B20005A686260236004205C601460A562FFF70D
:106B30002FFBAB68A34202D02648FFF761F9236C14
:106B4000AB4213D02448BDE87040FFF759B990E834
:106B50000C00012180F820101A6002685360FFF7D2
:106B6000BFFAD4E7236CEB60AC60256470BD90E89D
:106B70000A001960866A01684B60334602E0996832
:106B80008A4202D81B689E42F9D15A68426003606B
:106B900058601060BBE790E80A001960866A0168D7
:106BA0004B60334602E09968914202D31B689E42D3
:106BB000F9D15A684260036058601060B068A268FA
:106BC000836893429BD3A2E70448FFF719F98FE744
:106BD000E433002050010408640104084001040863
:106BE00010B52023044683F31188FFF731F92046BE
:106BF000FFF776FFFFF744F9002383F3118810BDF8
:106C00001E4A70B52023956983F31188FFF720F998
:106C10002C6C002C2DD0A368AB4203D01848FFF792
:106C2000EFF82C6C2668E3682B64A6421ED0696CD2
:106C30004BB11A689A4203D09268914238BF11460C
:106C4000DB68002BF5D13368326CA96030462360D5
:106C500000215C60A660E2603464FFF709FBFFF787
:106C60000FF9002383F31188204670BD0023A36031
:106C7000F5E70448FFF7C4F82C6CCCE7E4330020B8
:106C8000A00104088C010408AFF30080AFF300807A
:106C900010B52023044683F31188FFF7D9F8074B7A
:106CA0009B69D86B20EA0402DA630440FFF7E8F836
:106CB000002383F31188204610BD00BFE433002079
:106CC00038B504460D46FFF763F9C4B1E26B94F89A
:106CD000203045EA0201082BE1630CD0092B00D0DB
:106CE00038BDA36A19408B42FAD12046FFF7F8F964
:106CF0000023836238BDA36A1942F6D138BD024829
:106D0000FFF77EF8E2E700BF0C020408AFF3008053
:106D100038B504460D4680B1202383F31188FFF770
:106D200097F820462946FFF7CBFFFFF791FBFFF7C7
:106D3000A7F8002383F3118838BD0248FFF760F8F5
:106D4000EAE700BF38020408AFF30080AFF3008029
:106D500070B504460D461646A0B199B1002A11DD62
:106D600005EB8603314604F11C00E560A560256053
:106D70006360FFF735FD04F110000021BDE87040AD
:106D8000FFF72EBD0148FFF73BF8E9E77002040862
:106D900070B504460E461546FFF712F9C4B12946F0
:106DA00004F11C00FFF7CCFD054678B9A2686168C4
:106DB000131D8B42A36028BF2368166004F11000E6
:106DC00028BFA360FFF74CFEFFF742FB284670BDCB
:106DD0000148FFF715F8E2E790020408AFF30080DE
:106DE00070B5202306460D46144683F31188FFF73D
:106DF0002FF8224629463046FFF7CAFF0446FFF720
:106E00003FF8002383F31188204670BDAFF3008064
:106E100070B504460E461546FFF7D2F8D4B1CEB190
:106E2000294604F11000FFF78BFD054680B9E368A1
:106E30006268196804339342E36028BF23683160B5
:106E400004F11C0028BFE360FFF70AFEFFF700FB18
:106E5000284670BD0148FEF7D3FFE1E7D8020408D9
:106E600070B5202306460D46144683F31188FEF7BD
:106E7000EFFF224629463046FFF7CAFF0446FEF7D9
:106E8000FFFF002383F31188204670BDAFF300801D
:106E90000548064A0649074B20F0070022F0070282
:106EA00008601A60704700BFBFEA0120000002209E
:106EB0000434002000340020AFF30080AFF30080E2
:106EC00010B50446FFF764F8074A084913680968D3
:106ED000E01D20F00700C91A88429DBFC01810604D
:106EE0001846002010BD00BF0434002000340020EC
:106EF00010B52023044683F31188FEF7A9FF20462E
:106F0000FFF7DEFF0446FEF7BBFF002383F3118883
:106F1000204610BDAFF30080AFF30080AFF30080D8
:106F2000044B054A1A6003F1100000229A60DA60EF
:106F3000FFF7C6BD08340020F16E0008AFF30080F3
:106F4000F8B50746002857D057F8086C06F110002E
:106F5000FFF746FE08363446A7F10805AC4204D8D0
:106F60006368083323449D420BD3B4420ED0AC4235
:106F70000CD32468AC42F8D86368083323449D429C
:106F8000F3D21F48FEF73CFFB442F0D123681BB197
:106F90009D4201D31C46E1E757F8042C47F8083C12
:106FA000256002F1080357F8080CE918814209D05E
:106FB000636803F108022244954211D0BDE8F8400D
:106FC000FFF71EBE4968EB5847F8083C53180833D2
:106FD00047F8043C636803F1080222449542EDD16E
:106FE00057F8041C57F8082C22600B4408336360E0
:106FF000BDE8F840FFF704BE0248FEF701FFA3E733
:107000002003040810030408AFF30080AFF30080EE
:1070100070B504460D46164608B1032902D8034848
:10702000FEF7EEFE002384E8680070BD400304080C
:1070300010B50446FEF7ACFF4CB1206810B10368F0
:10704000236010BDA3680BB16068984710BD02486B
:10705000FEF7D6FEF1E700BF50030408AFF300804F
:1070600010B52023044683F31188FEF7F1FE204675
:10707000FFF7DEFF0446FEF703FF002383F31188CA
:10708000204610BDAFF30080AFF30080AFF3008067
:1070900038B504460D46FEF77BFF24B11DB12368C9
:1070A0002B60256038BD0348FEF7AAFE23682B60DD
:1070B000256038BD64030408AFF30080AFF300809F
:1070C00038B505460C46202383F31188FEF7C0FE31
:1070D00028462146FFF7DCFFFEF7D2FE002383F3AC
:1070E000118838BDAFF30080AFF30080AFF30080AC
:1070F00070B506460D46144628B142B90948BDE8A8
:107100007040FEF77DBE0748FEF77AFE44B129467F
:107110003046FFF7D5FF7368013C1D44F7D170BDC1
:1071200070BD00BF74030408AFF30080AFF30080AC
:107130000A4B10B51A680A4C42F004021A60204645
:10714000012100224FF480530AF02AF920464FF41F
:107150008051BDE810400AF003B900BF303802404A
:1071600000080240AFF30080AFF30080AFF300806F
:1071700010B5224C22482368002143F004030A463C
:10718000236002230AF00CF923681E48002143F013
:1071900001030A46236008230AF002F9FFF7C8FF3B
:1071A00017484FF480510AF0E3F801F031F800F08D
:1071B000BFFD01F0ADF812484FF480510AF0D0F84D
:1071C0000F4802210AF0DCF80028F9D00D48082108
:1071D0000AF0D6F804460028F8D101F019F801F0B9
:1071E0002FF909480AF04CF800F0BAF900F018FA43
:1071F00021460648BDE81040FFF7F2BA3038024099
:107200000008024000000240100B0408283400204F
:10721000DD200249024A03F093BD00BFD17200088D
:107220003C340020AFF30080AFF30080AFF3008068
:10723000F8B5044601200F4615461E4601F0C0F879
:10724000214617480AF074F9072F11D8CDB15FB164
:10725000013FBFB201370024315D11480AF068F9DF
:1072600028550134BC42F7D1BDE8F84001F0D0B850
:1072700038462946324601F043F9BDE8F84001F0AE
:10728000C7B8002FF0D07C1E16FA84F4013E16F821
:10729000011F03480AF04CF9A642F8D1E4E700BF09
:1072A00000300140AFF30080AFF30080AFF3008007
:1072B00000B583B002AA002302F8043DFB20134668
:1072C0000121FFF7B5FF9DF8040003B05DF804FB52
:1072D00000B583B06A466B46FD200821FFF7A8FF82
:1072E0006A460821DD2003F063FE03B05DF804FB6D
:1072F00030B583B001AA00241346F92004218DF88B
:1073000004408DF805408DF806408DF80740FFF7E2
:107310008FFF9DF805009DF804509DF807400D492A
:107320009DF806200B68000440EA0560204340EA0F
:1073300002209842084B08601C684FF000023CBFD6
:1073400001341C60234642EA00042046194603B07B
:1073500030BD00BF3434002038340020AFF300804B
:1073600030B583B005468DF804200C466A466B465E
:10737000F6200521FFF75CFF25B19DF8003003F0F2
:107380000F032B7034B19DF90030002BACBF0223EA
:1073900001232370DDF8010000BA03B030BD00BF47
:1073A000F0B583B001AA0446070E060C050A134681
:1073B000F82004218DF807408DF804708DF80560E1
:1073C0008DF80650FFF734FF322300BF013BFCD19C
:1073D00003B0F0BDAFF30080AFF30080AFF30080E7
:1073E00008B501460348FFF7EBFA831C14BF0020E1
:1073F000012008BD28340020AFF30080AFF30080E7
:1074000010B582B001AA00241346012004218DF892
:1074100004408DF805408DF806408DF80740FFF7D1
:1074200007FF9DF805309DF804109DF807209DF892
:1074300006001B0443EA0163134343EA002002B041
:1074400010BD00BFAFF30080AFF30080AFF300804A
:1074500080B53C4B3C4A9B693C4EDFF8FC80DFF832
:10746000FC909A6182B03A48FFF752FAD9F800309E
:107470009907F8D5002704210DEB010213460020DF
:107480008DF804708DF805708DF806708DF8077012
:10749000FFF7CEFE9DF805509DF804109DF80720DB
:1074A0009DF806302D0445EA0165154355EA03258C
:1074B00044D46A003FD42B0138D4AC0033D4E80064
:1074C0002ED4690129D4337825F07C45C3B1BDB1F0
:1074D0002B46002407E001343378E4B2A3420FD9ED
:1074E00035FA04F30CD0DB07F5D5204604F060FF35
:1074F000204604F0A5FF01343378E4B2A342EFD86C
:10750000002009F09DFAD8F800300133C8F80030A7
:10751000D9F800309A07AED4A5E706F099FDD2E776
:1075200004F096FDCDE704F0A3FDC8E7094800216B
:10753000FFF79EF9C1E705F0CBFABCE705F090FB39
:10754000B7E700BFE4330020900304085E34002056
:1075500050340020283400204C3400201000024019
:1075600000B5164883B00021FFF73AF9144A154BCD
:107570001068154940F0010010601A6842F480421A
:107580001A6002200AF034FA002102200AF0F8F909
:1075900002200AF025FA02200AF012FA00230093D2
:1075A0004FF41261094B0A487E22FFF711F80720B9
:1075B000402103B05DF804EBFEF70ABB5034002015
:1075C0003038024044380240000002405174000844
:1075D00000100010AFF30080AFF30080AFF3008025
:1075E00008B5FEF795FC202383F31188FEF760FCB5
:1075F00002200AF0F5F909488368002B0ADDFEF73E
:107600006FFC002383F31188FEF7A2FCBDE808405D
:10761000FEF75EBAFFF724FAF1E700BF503400200E
:1076200070B50E4B0E4E93E8070084B004AB03E92F
:1076300007006D464FF45024204655F8041F0134CE
:10764000012200F07DFAB442F6D1064B1A780B2ADB
:1076500028BF0B221A7004B070BD00BF10FD0308D4
:1076600003000D005E340020AFF30080AFF3008014
:10767000F0B5284D83B00646002404F560200DF1D6
:107680000601012200F05CFA9DF806303355013402
:10769000E4B213B9204603B0F0BD2A6813445B7806
:1076A00013F0970FE9D11C4B1C4F18681B79306001
:1076B00035464FF4602405F8043F012220460DF1C1
:1076C0000601144400F03CFA28460321144A9DF8B0
:1076D00006302EF06DFFBC4205F10205EDD12046CB
:1076E0000DF10701012200F02BFA9DF807304BB194
:1076F0000C4B03CB06F12C051C889A78F06269606C
:107700002C81AA7230462FF0B3FAC4B2204603B0DF
:10771000F0BD00BF1C250020A003040814000E00CB
:10772000A8030408B0030408AFF30080AFF300809F
:1077300000B583B001A904224FF4702000F000FAD4
:107740009DF805309DF804109DF807209DF806006F
:107750001B0443EA0163134343EA002003B05DF8CE
:1077600004FB00BFAFF30080AFF30080AFF30080F5
:1077700000B583B001A90422094800F0E1F99DF8A1
:1077800005309DF804109DF807209DF806001B04A5
:1077900043EA0163134343EA002003B05DF804FBAE
:1077A00004000F00AFF30080AFF30080AFF3008060
:1077B00000B50A4B93E8030083B002AB03E9030072
:1077C000FFF7D6FF0130032828BF002002AB03EBF0
:1077D000800050F8080C03B05DF804FB1CFD0308A2
:1077E00000B583B002ABFF2203F8042D072001216E
:1077F0000022FFF71DFD03B05DF804FBAFF300802E
:1078000030B583B00446051202210620002201ABE8
:107810008DF805408DF80450FFF70AFD03B030BD28
:107820002DE9F04182B0154604466A460E466B4685
:1078300008200621FFF7FCFC9DF800809DF80170F0
:107840009DF802C09DF803000A4A9DF804109DF8B7
:10785000053047EA082740EA0C2037802880127854
:1078600043EA0123C2F110021341238002B0BDE8B4
:10787000F08100BF5D340020AFF30080AFF30080E3
:1078800010B50FF005F88021034600220920BDE85D
:107890001040FFF7CDBC00BFAFF30080AFF3008016
:1078A000F0B5520100EB800083B05B0101F01F01D5
:1078B000C2F3046E0A3041EA020C4EEA030EC3F32F
:1078C00002471E1215141412C0B2062100226B4684
:1078D0008DF805C08DF802E08DF800708DF801601C
:1078E0008DF803508DF80440FFF7A2FC03B0F0BD03
:1078F000F0B500EB800083B00B304FEA212CC2F3CF
:10790000046E0C468DF80730170C160A9DF82050AF
:107910008DF80320C0B2082100226B468DF8054087
:107920008DF804C08DF800E08DF801708DF80260CC
:107930008DF80650FFF77CFC03B0F0BDAFF300807C
:10794000437830B4057884781B0243EA0543234327
:107950000B600023047CC57B417C240244EA05447F
:107960000C43D11844F317044C60C17C857C047D22
:10797000090241EA0541214341F31701D15008337F
:10798000182BA0F10600E5D130BC7047AFF30080A2
:1079900030B500EB800087B00C300D4614466B46C6
:1079A0006A46C0B21521FFF743FC684629462246C5
:1079B000FFF7C6FF07B030BDAFF30080AFF3008024
:1079C00010B5044608460EF063FF04EB840403463A
:1079D00004F10E00C0B280210022BDE81040FFF784
:1079E00027BC00BFAFF30080AFF30080AFF300808F
:1079F00000B583B002AB002203F8042D032001215F
:107A0000FFF716FC03B05DF804FB00BFAFF3008086
:107A100070B58617C0F3014306F0040682B01E431A
:107A20000446051246F0080602200321002201AB9D
:107A30008DF806408DF804608DF80550FFF7F8FBCF
:107A400002B070BDAFF30080AFF30080AFF30080F1
:107A500010B5002482B022460220032101AB8DF82C
:107A600004408DF805408DF80640FFF7E1FB02B0B9
:107A700010BD00BFAFF30080AFF30080AFF3008014
:107A800010B5002482B0446004606A466B4604204E
:107A900006210094ADF80440FFF7CAFB02B010BD08
:107AA00008B5022000F08CFC0348062109F040FDD7
:107AB000BDE8084000F0ACBC00380040AFF30080E7
:107AC00008B5022000F07CFC0348042109F030FDD9
:107AD000BDE8084000F09CBC00380040AFF30080D7
:107AE00010B5084C022000F06BFC2046052109F07F
:107AF0001FFD0021204609F01BFD044600F088FC14
:107B0000E0B210BD00380040AFF30080AFF300805A
:107B100038B5084C0546022000F052FC20460121F1
:107B200009F006FD2046294609F002FDBDE838406F
:107B300000F06EBC00380040AFF30080AFF300806F
:107B400030B51A4B984283B004460D4602D9032043
:107B500003B030BD511E0144994202D9042003B044
:107B600030BD0220019200F02BFC0321104809F0E7
:107B7000DFFC210C0E4809F0DBFCC4F307210C48A4
:107B800009F0D6FCE1B20A4809F0D2FC019A4AB1E8
:107B90002C4615440648002109F0CAFC04F8010BE4
:107BA000AC42F7D100F034FC0020D1E7FFFF0F001A
:107BB00000380040AFF30080AFF30080AFF30080E7
:107BC000B0F5801FF8B504460E46154601D30320D4
:107BD000F8BD531E0344070AB7EB132F01D204204C
:107BE000F8BD022000F0ECFB0221104809F0A0FCD7
:107BF000210C0E4809F09CFCF9B20C4809F098FCE5
:107C0000E1B20A4809F094FC002435B1315D07481F
:107C1000013409F08DFCA542F8D800F0F9FBFFF71C
:107C20005FFF10F00100FAD1F8BD00BF003800403E
:107C3000B0F5801F10B5044601D3032010BD02200B
:107C400000F0BEFBD8210C4809F072FC210C0A4858
:107C500009F06EFCC4F30721074809F069FCE1B2A2
:107C6000054809F065FC00F0D3FBFFF739FF10F081
:107C70000100FAD110BD00BF00380040AFF3008012
:107C800038B500F00F000E4D40EA0114032000F05B
:107C900097FB210E284609F04BFCC4F30741284608
:107CA00009F046FCC4F30721284609F041FC2846A8
:107CB000E1B209F03DFCBDE8384000F0A9BB00BFCF
:107CC00000380040AFF30080AFF30080AFF30080D6
:107CD0000246806938B50D4644689168C068D2682C
:107CE0002B46A0470446A0B10D4B0E4A19681278E6
:107CF00021F4C041012A19600DD0022A02D141F4B9
:107D0000005119600020FFF7BBFF294606482DF0FF
:107D1000D7FD204638BD41F480411960F2E700BF2D
:107D20008434002000000020E0030408AFF300804A
:107D30002E4B1A6810B52E4C42F002021A602046F3
:107D400002224FF48073012109F02AFB20464FF4F0
:107D5000807109F00DFB01210A4620464FF40073A3
:107D600009F01EFB20464FF4007109F0F9FA0121D9
:107D70000A4620464FF4806309F012FB20464FF478
:107D8000806109F0EDFA1B4B1B4A19460020136075
:107D9000FFF776FF194B1A4A194601201360FFF7C7
:107DA0006FFF184B184A194602201360FFF768FF4F
:107DB000164B174A194603201360FFF761FF154B56
:107DC000154A194604201360FFF75AFF134B144A53
:107DD000194605201360FFF753FF124B124A19464C
:107DE0000720BDE810401360FFF74ABF303802405B
:107DF00000040240A31AFF0B84340020080255003F
:107E00008834002000E0AF0E8C3400200802EC091A
:107E1000783400208000C0007C340020700000080E
:107E200080340020F2FF010074340020AFF30080A2
:107E300008B50549054805F0E3FEBDE80840C1B2B4
:107E4000034805F045BF00BF603400200400002057
:107E500014000020AFF30080AFF30080AFF3008088
:107E6000012806D0022803D10448102109F078BA6D
:107E700070470248082109F073BA00BF00080240A9
:107E80000A4B10B51A680A4C42F004021A602046E8
:107E900001210022182309F083FA2046082109F065
:107EA0005FFA0220BDE81040FFF7DABF3038024029
:107EB00000080240AFF30080AFF30080AFF3008012
:107EC000012806D0022803D10448102109F050BA35
:107ED00070470248082109F04BBA00BF0008024071
:107EE000012806D0022803D10448102109F050BA15
:107EF00070470248082109F04BBA00BF0008024051
:107F000070B4144A83B00023D4680193019BCBB9A9
:107F10004FF47A7303FB01F10F4DD3680139A5FBD0
:107F20000161890901311B1B8B4204D30AE0D3682C
:107F30001B1B8B4206D2036803F020030193019BB5
:107F4000002BF4D00198003018BF012003B070BCA2
:107F5000704700BFD4330020D34D6210AFF30080D0
:107F60002DE9F047144607464FF47A76084606FB9B
:107F700004F68A462EF07CFE164B174C013EA3FBFE
:107F80000626B609E5685FFA80F901364FF0000869
:107F9000C84505D308E038466421FFF7B1FF48B96A
:107FA000E3685B1BB342F6D3B8EB09035842584170
:107FB000BDE8F087384609F023FC1AF80830C0B253
:107FC000834206BF08F101085FFA88F84FF0000805
:107FD000DEE700BFD34D6210D4330020AFF3008042
:107FE00038B50C460978054631B1284609F0D0FB72
:107FF00014F8011F0029F8D12846BDE8384009F0DF
:1080000007BC00BFAFF30080AFF30080AFF3008088
:1080100070B504460E464FF4E131154600F008FBFA
:1080200020462B49FFF7DCFF20462A494FF4966291
:10803000FFF796FFD0B920464FF4614100F0F8FAFF
:1080400020462349FFF7CCFF204622494FF4966291
:10805000FFF786FF002838D129461F482DF030FC55
:1080600020463146BDE8704000F0E2BA4FF4E132FC
:1080700029461A4D1A482DF023FC297829B914E015
:1080800009F086FB15F8011F79B12C292046F7D19C
:108090001449FFF7A5FF0F4920464FF4FA72FFF786
:1080A0005FFF15F8011F0029EFD120460D49FFF7AA
:1080B00097FF20460C494FF4FA72FFF751FF204614
:1080C0003146BDE8704000F0B3BA4FF46142CFE7EB
:1080D0004004040844040408A404040834000020F4
:1080E000500404084C04040830FD0308AFF300807A
:1080F0000148022105F0ECBD34010020AFF30080FF
:1081000010B50B2882B002D9052002B010BD019035
:1081100009F0CEFB0C4A01981368DB03FCD40B4A30
:10812000094B11681030012404FA00F021EA000024
:108130001060116841F002011160186810F480307D
:10814000FBD102B010BD00BF0C3C0240143C024009
:1081500010B50B2882B002D9052002B010BD0190E5
:1081600009F0A6FB0B4A01981368DB03FCD40A4A0A
:10817000084B11681030012404FA00F00843106025
:10818000116841F002011160186810F48030FBD1D1
:1081900002B010BD0C3C0240143C0240AFF3008022
:1081A00000B50B2883B003D9052003B05DF804FBAC
:1081B000019009F045FB01984FF4007109F0B8FBFC
:1081C00009F056FB002003B05DF804FBAFF300801C
:1081D00000B500F17843B3F5801F85B003D30320C9
:1081E00005B05DF804FB531E0344B3F1016F01D3E6
:1081F0000420F5E703900291019209F021FB039816
:108200000299019A09F084FB09F032FB0020E7E7AC
:108210003649374A0868374B40F48050F0B508605B
:108220001168354D354C364F364E41F48041116062
:108230001A6842F0030283B01A602846102109F040
:108240008FF820464FF4C05109F08AF801212846E2
:108250000A46102309F0A4F8012120460A464FF4EB
:10826000805309F09DF8012120460A464FF400632F
:1082700009F096F82846E0230221002209F090F840
:1082800028460521E02209F0B3F820464FF4604368
:108290000221002209F084F82046052100244FF431
:1082A000604209F0A5F8214622462346384600944C
:1082B000019409F05DF9384609F042F92146224659
:1082C000234600940194304609F052F9304609F0F3
:1082D00037F9384609F01CF9304609F019F90A480F
:1082E00003B0BDE8F040FEF7EBBB00BF44380240EE
:1082F0004038024030380240000002400004024092
:1083000000300140003800401C350020AFF30080F1
:1083100010B5204A13681B06FCD41F4809F000F969
:108320001E4A1F4B116821F480511160196811F029
:108330008004FBD11B4809F0F3F81B4B1B481A685B
:1083400022F480421A6021462246102309F028F8C0
:108350001748214622464FF4805309F021F814486B
:10836000214622464FF4006309F01AF80F482146CF
:108370002246E02309F014F822464FF460432146D8
:108380000B4809F00DF80B4B1A6822F003021A6033
:1083900010BD00BF083001400030014044380240A9
:1083A00008380040003800404038024000000240D9
:1083B0000004024030380240AFF30080AFF3008089
:1083C00010B504460E48FEF70BFC022C11D0032C0E
:1083D00008D0012C00D010BD0A481021BDE8104083
:1083E00008F0C6BF08484FF40061BDE8104008F02F
:1083F000BFBF05484FF48051BDE8104008F0B8BF3A
:108400001C3500200000024000040240AFF3008051
:1084100008B50648102108F0A3FF05484FF4C051E5
:1084200008F09EFFBDE80840FEF7EABB00000240EE
:1084300000040240AFF30080AFF30080AFF3008090
:10844000F8B51F4B1F481A6842F480021A6009F001
:1084500087F81D4B1A6822F001021A6019681A4D3C
:1084600011F00104FAD121461848194F194E3D2246
:1084700008F04EFF184B1949194A2C60387A0E60E3
:108480002A6040211C60FDF7A3FB0E48154D09F042
:108490005FF8154BDFF85CE01968144ACEF800600D
:1084A00021F001011960F87A1C6040211D60146000
:1084B000FDF78EFB21460E48BDE8F840FEF790B967
:1084C0003038024000300140106402400064024035
:1084D000200904080C300140146402401864024072
:1084E0001604030646040306586402405C64024016
:1084F0001035002060640240AFF30080AFF30080CD
:1085000070B5144D04460E46284611462246FBF728
:10851000EFFE11481149124A124B04600D601560BC
:108520001C60BFF35F8F52F80C1C0F4841F0010133
:1085300042F80C1C5A6C42F001025A64FEF7E8F94A
:1085400036B1304629462246BDE87040FBF7D0BE22
:1085500070BD00BF903400205C640240646402403F
:108560001C6402401464024010350020AFF3008008
:1085700010B5FDF7CDFC202383F31188FDF798FC9F
:10858000134800210C2208F0D3FE0446D8B9104845
:108590000321302208F0BCFE0D482146302208F0AD
:1085A000B7FE0C488368002B0ADDFDF799FC002319
:1085B00083F31188FDF7CCFCBDE81040FDF788BAC5
:1085C000FEF74EFAF1E70448044903F081FC00BFCE
:1085D00000640240103500201005040864050408FA
:1085E00010B5FDF795FC202383F31188FDF760FC9F
:1085F0000A4803210C2208F09BFE044650B9FDF7FF
:108600006FFC234683F31188FDF7A2FCBDE8104000
:10861000FDF75EBA0248034903F05AFC00640240C9
:1086200080050408D4050408AFF30080AFF3008090
:1086300038B504460D4609F0A3F82046294609F04E
:108640004FF82046082109F063F82046002109F080
:108650006FF82046002109F073F82046002109F048
:108660007FF820460C2109F073F82046BDE8384019
:1086700009F07EB8AFF30080AFF30080AFF3008065
:108680002DE9F047DFF8288298F8004082B0824652
:10869000894617461D4614B9002B00F0B580684A7C
:1086A000684E1168684B6948694C41F030011160AF
:1086B000326842F4802232601A6842F005021A6081
:1086C0000221C023012208F06BFE60480821C0226D
:1086D00008F08EFE4FF4C0635E480221012208F0CC
:1086E0005FFE5C4807214FF4C06208F081FE4FF442
:1086F000406356480221012208F052FE4FF44062C6
:108700005248072108F074FE51465348FFF790FF86
:1087100052484946FFF78CFF052651483946FFF776
:1087200087FF04F634004C494E4A0096062300F0B9
:10873000B7FA0123201D48494A4A009600F038FC48
:1087400049480121FEF74CF801232370002D2DD05C
:10875000464B1A6802F07F42B2F1806F10D01B685E
:108760009A005ED4414B1B68002B64DB3F4B1B68B7
:10877000DB0052D43D4B3E481968090E2DF0A0F89D
:108780003C482DF0E5F8394B3B481A6842F08072BE
:108790001A602DF0DDF839482DF0DAF8384B1B7BE4
:1087A000002B42D1374B1B7B002B30D1364F2B494E
:1087B0002C4A364E042507F634000723009500F0B6
:1087C0006FFA284A254900950223781900F0F0FB3A
:1087D00001242F480121FEF703F8009506F6340026
:1087E0001F492C4A3C70032300F05AFA70192346A3
:1087F0001B49284A009500F0DBFB21462648FDF77F
:10880000EFFF347088F8004002B0BDE8F0873946C9
:108810001348224AFFF7FCFBC8E721482DF098F8DF
:10882000A8E720482DF094F89CE749460B481E4ADB
:10883000FFF7EEFBB6E71D482DF08AF896E700BF7C
:1088400044380240403802403038024000080240BC
:1088500008560020000002400014014000100140B2
:108860000048004000640240606600207438024006
:1088700068060408840604089C060408BC0604086C
:1088800064020020C40200202C3500209C450020FA
:108890008445002000600240F4550020E8060408EA
:1088A00048060408F0050408E00604082406040845
:1088B00098450020AFF30080AFF30080AFF3008055
:1088C00070B5FFF715FC1E491E481F4D05F098F9BD
:1088D000C4B221461D4805F0FBF91D48002105F0F2
:1088E000F7F91C48002105F0F3F921461A4805F074
:1088F000EFF91A48002105F0EBF92978184805F03E
:10890000E7F91848002105F0E3F92146164805F07B
:10891000DFF91648002105F0DBF92978144805F045
:10892000D7F91448002105F0D3F91349134A144B21
:10893000486851685A68BDE870400123FFF7A0BE3F
:1089400074660020B40100204C9F002054010020D8
:1089500074010020C4010020E401002094010020E3
:10896000040200202402002094020020440200207F
:1089700074020020D4020020B4020020640200200F
:10898000C4020020AFF30080AFF30080AFF300809B
:1089900008B5104B1B7803B908BD0F4800F0F0F97B
:1089A0000E4800F08DFB0E4808F0EAFE0D4800F07E
:1089B000E7F90D4800F084FB0C4808F0E1FE0C4894
:1089C00000F0DEF90B4800F07BFB0B48BDE80840E7
:1089D00008F0D6BE984500203C5E00200C560020D2
:1089E00000140140603D002030350020001001409F
:1089F000D04D0020A045002000480040AFF300808B
:108A00000246806910B50B4644689168C068D26818
:108A1000A047044650B1FFF7BBFF0549054A064B86
:108A2000486851685A680023FFF72AFE204610BDA7
:108A3000B402002064020020C4020020AFF30080D2
:108A4000F8B505460E46202383F31188FDF700FA9A
:108A50002C7864B941F26403EB58B3421CD0FDF7A3
:108A60000FFA002383F311881C462046F8BD05F554
:108A7000825018300021FDF763FF07460028E9D136
:108A800041F2640241F26803AE50E850FDF7F8F994
:108A90003B4683F31188E8E741F26803EA58013264
:108AA000EA50FDF7EDF9002383F311880124DCE798
:108AB00041F2680310B5C258044612B1013AC250DF
:108AC00010BD202383F31188FDF7C2F904F5835309
:108AD0001B68002B07DDFDF7BBFCFDF7D1F9002378
:108AE00083F3118810BD04F582501830FDF7B8FFEC
:108AF000F1E700BFAFF30080AFF30080AFF3008079
:108B000008B5FDF705FA202383F31188FDF7D0F9A6
:108B1000064800F085F9FDF7E3F9002383F3118897
:108B2000FDF716FABDE80840FCF7D2BF3C5E002016
:108B300008B5FDF7EDF9202383F31188FDF7B8F9A7
:108B4000064800F005FBFDF7CBF9002383F31188FD
:108B5000FDF7FEF9BDE80840FCF7BABF0C5600204F
:108B600008B5FDF7D5F9202383F31188FDF7A0F9A7
:108B7000064800F055F9FDF7B3F9002383F3118897
:108B8000FDF7E6F9BDE80840FCF7A2BF603D002014
:108B900008B5FDF7BDF9202383F31188FDF788F9A7
:108BA000064800F0D5FAFDF79BF9002383F31188FE
:108BB000FDF7CEF9BDE80840FCF78ABF303500204C
:108BC00008B5FDF7A5F9202383F31188FDF770F9A7
:108BD000064800F025F9FDF783F9002383F3118897
:108BE000FDF7B6F9BDE80840FCF772BFD04D002094
:108BF00008B5FDF78DF9202383F31188FDF758F9A7
:108C0000064800F0A5FAFDF76BF9002383F31188FD
:108C1000FDF79EF9BDE80840FCF75ABFA0450020CB
:108C200038B5D0F80C2890F81438182111FB03211E
:108C30000B69DB0729D4D0F80038D0F80448C518F0
:108C4000CD61A34238BFC3EB040390F814484FF042
:108C5000180102F1140211FB042228BFC3F50063BE
:108C6000C0F808381360D0F810381A6822F04002B3
:108C70001A60D0F80C3890F81428103311FB023326
:108C80001A6842F001021A6038BD0248024903F036
:108C90001FF900BF80070408D8070408AFF300805D
:108CA0002DE9F843304C314DD4F80CE09DF820907C
:108CB00004469846AA424FF00003C4F81018C4F8BE
:108CC0000C280F46164680F81488C0F81838C0F8EB
:108CD00020E880F8159828D0254B9A422BD01825EB
:108CE00015FB0865384608F073FD2A6921491F4BBA
:108CF000EC614FEA496907F1040C49EA010122F0ED
:108D00000107852000229E422F61C5F818C02A6104
:108D100029616A616862C4F80028C4F804281BD07D
:108D2000134B9E420FD0BDE8F883134B1A6842F4F0
:108D300000121A60D3E7A3F52F53103B1A6842F4D0
:108D400080021A60CBE70D4B9844702198F8080018
:108D5000BDE8F843FCF73CBF084B702113F808004E
:108D6000BDE8F843FCF734BFD43300200060024074
:108D70000064024056048300303802402009040891
:108D80001B4AD0F80C38934210B504461CD0194A3F
:108D9000934222D094F814081821102211FB0022CB
:108DA000D05820F00100D050D4F80C3894F8142892
:108DB000103311FB02321368DB07FCD4D4F810081F
:108DC000BDE8104008F00CBD90F814380A4AD05C99
:108DD000FCF726FFD4F80C38DCE790F81438064A84
:108DE0001344187AFCF71CFFD4F80C38D2E700BF04
:108DF000006002400064024020090408AFF30080D4
:108E0000D0F80028D0F8043893422CBF02F2FF7249
:108E100002F1FF32D01A7047AFF30080AFF3008049
:108E200010B504460C22D0F80C0894F8141808F079
:108E30007FFA88BBD4F80C0894F81418202208F0A4
:108E400077FA88B9D4F80C0894F81418012208F0BD
:108E50006FFA00B910BDD4F80C0894F81418112258
:108E6000BDE8104008F054BA94F81418D4F80C086F
:108E7000302208F04DFAD4F80038D4F80818D4F8A5
:108E800004280B44C3F30A039342C4F80038D9D032
:108E90002046FFF7C5FED5E70148024903F018F860
:108EA000040804085C080408AFF30080AFF30080F6
:108EB0002DE9F041154604460E46C2B3D4F80038F9
:108EC000D0F8040898422CBF03F2FF7303F1FF337C
:108ED0001B1A9A4228D81718C7F30A03B7F5006F70
:108EE000C4F8043826D9C0F5006842462044FBF790
:108EF000FFF9204606EB0801A7F50062FBF7F8F939
:108F0000D4F80C0894F8141800F11003182212FB7E
:108F100001331B68DB0711D5D4F818382B44C4F88B
:108F200018382846BDE8F0810020BDE8F0811046E1
:108F3000BDE8F0812044FBF7DBF9E1E7202208F0EF
:108F4000F7F90028E8D12046FFF76AFEE4E700BF02
:108F5000F8B5154B0646D0F81808DF68FBF7BAFCE1
:108F60000446D6F82008381A0D46FBF7B3FC002259
:108F70000E4BFBF74FFEFCF70BF8FBF7CDFC002286
:108F80000A4BFBF71DFD02460B4620462946FBF720
:108F900041FEFBF7FDFF0023C6F82078C6F818381D
:108FA00000EE100AF8BD00BFD433002000408F400F
:108FB0002DE9F84F06469DF828A0C6F81018C6F807
:108FC0000C2886F81438884680F815A8002100F689
:108FD000240093469946FDF703FC324B324ADB6886
:108FE000C6F8203893454FF00003C6F818383CD037
:108FF0002E4B9B453FD0182717FB09B7404608F07A
:10900000D7FB3B6923F0010307F110053B612C6896
:1090100014F00104FBD1584649463D2208F078F986
:109020004FEA4A6A204A3C614AF4A26343F00603CD
:109030004FF4006008F1040193453B61FE617861E3
:10904000B961C6F80048C6F80848C6F8044822D0F6
:10905000164B9B4517D0D8F80030D8F804303B6940
:1090600043F001033B61BDE8F88F114B1A6842F4ED
:1090700000121A60BFE7A3F52F53103B1A6842F4A1
:1090800080021A60B7E70B4B9944702199F80800E9
:10909000FCF79EFDDFE7074B702113F80900FCF792
:1090A00097FDD8E7D43300200060024000640240FE
:1090B0003038024020090408AFF30080AFF300808D
:1090C0001E4AD0F80C38934210B5044623D01C4AEF
:1090D000934229D094F814081821102211FB002281
:1090E000D05820F00100D050D4F80C3894F814284F
:1090F000103311FB02321368DB07FCD4D4F81008DC
:1091000008F05EFBD4F80C0894F814183022BDE87F
:10911000104008F0FDB890F814380A4AD05CFCF70B
:109120007FFDD4F80C38D5E790F81438054A13447D
:10913000187AFCF775FDD4F80C38CBE700600240D4
:109140000064024020090408AFF30080AFF3008000
:1091500010B504460D22D0F80C0894F8141808F045
:10916000E7F8F0B9D4F80C0894F81418302208F095
:10917000DFF800B910BD3022D4F80C0894F81418A8
:1091800008F0C6F8D4F80828D4F82C380132002B9F
:10919000C4F80828EEDC04F62400BDE81040FDF712
:1091A0005FBC0248024902F093FE00BF8008040839
:1091B000D8080408AFF30080AFF30080AFF300805D
:1091C000F0B5D0F80C1890F81468182701F11405C0
:1091D000044617FB0651D0F80808D4F80438D4F830
:1091E00000280968013002EBC323C1EBC020C01A7C
:1091F00083B01ED4B0F5006F01DC03B0F0BD0E48A3
:109200002CF0A6FBD4F81C380133C4F81C382046D7
:10921000FFF756FF94F81508D4F81018D4F80C2866
:1092200094F8143800902046FFF7C2FE002003B0E7
:10923000F0BD002003B0F0BDF8080408AFF30080D3
:109240002DE9F0410446884615461F4600F62406DF
:1092500002E0FDF7B5FB30B92046FFF7B1FFA842A9
:1092600039463046F5D32046FFF7AAFFD4F8002848
:10927000A84228BF284685B2AB18B3F5006F24D3A7
:10928000D4F804380133A118C4F80438C2F50062D8
:109290004046FBF72DF8D4F80038C3F50060A3F57D
:1092A000006240442A442146FBF722F8D4F80038F3
:1092B000A3F500632B44C4F80038D4F818382B44C5
:1092C000C4F818382846BDE8F081A11840462A465F
:1092D000FBF70EF8D4F800382B44C4F80038ECE75C
:1092E0000023FFF7ADBF00BFAFF30080AFF30080F6
:1092F00038B50446124BD0F82008DD68D4F8183889
:1093000007EE903A2DED028B281AB8EE678AFBF72C
:10931000E1FA00220B4BFBF77DFC0A4B0022FBF726
:109320004FFBFBF735FE07EE900A88EE270ABDECEF
:10933000028B0023C4F82058C4F8183838BD00BF89
:10934000D433002000408F40AFF30080AFF30080A3
:1093500008B540F2866008F0BBFB054B1A6842F086
:1093600008021A601A6842F004021A6008BD00BFC1
:1093700000080650AFF30080AFF30080AFF3008029
:1093800070B40D490D4D0C6828680D4A0D4EA04271
:1093900005D0086070BC70471368DB0708D41368F9
:1093A00013F0600FF8D0136813F0600FF7D1F3E7F4
:1093B00030682860EBE700BF886600208C660020DC
:1093C0000408065008080650AFF30080AFF3008091
:1093D00008B508F04DF808F033F8BDE8084008F08B
:1093E0008FB800BFAFF30080AFF30080AFF3008011
:1093F00008F086B8AFF30080AFF30080AFF30080D1
:109400002DE9F043284B294EDFF8A490F61A4FF6C9
:10941000FF75B9F8C04087B00746C6F30F26A846C7
:10942000B4424FEA042201A84FF0120126D201F003
:109430006FF89DF80D309A0711D4454523D07B195C
:1094400004F5007404F47E449C42E9DBB9F8C030B2
:10945000174AAB4221D0284607B0BDE8F0839B06EF
:10946000BDF80A2014D50134A4B2B4424FF6FF75FA
:109470004FEA042201A84FF01201D8D34FF6FF7033
:1094800007B0BDE8F0833B19B342F7DA2546D7E7CA
:109490001444A4B24FF6FF75C2E72F442846A2F841
:1094A000C07007B0BDE8F083000008080000100895
:1094B00094660020AFF30080AFF30080AFF300802C
:1094C000F0B5C7B002020646122101A801F020F84B
:1094D000BDF80A50013DADB24FF6FF7706ACBD4274
:1094E00016D0AA19120220464FF4807101F010F82C
:1094F000FF2302E013F1FF330DD3E25C002AF9D021
:109500000DB9112B04D9113B03EB052047B0F0BD79
:10951000002047B0F0BD013DADB2E0E7AFF3008001
:109520002DE9F04F89B000AF83883861BA610BB97B
:109530004FF480733C697B616488FC6024B94FF40C
:10954000006292FBF3F2FA60BD697E692A682C8999
:10955000C7F808D0B2FBF6F506FB1522B01A844214
:10956000BE693C69326084BFC2EB030333810029CA
:10957000B8BFD7F80CA02388A8BF1FFA81FABAF5A4
:10958000807F34BFD0464FF480781FFA88F84FEAC6
:10959000480C0CF108026E46D2081B02A6EBC20072
:1095A000123385466C4603EB4A0BBAF1000F66D0C6
:1095B0004FF6FF73ADB2FB61002608EB0609D145FB
:1095C00007DDC6EB0A081FFA88F84FEA480C08EBDB
:1095D0000609CCEB0B0B61465A462046C7F804C07F
:1095E00000F096FF08F1FF3292B211B20029D7F8CD
:1095F00004C00FDB34F811100139A94205D12AE06B
:1096000034F81330013BAB4225D0013A92B213B289
:10961000591CF5D11FFA89F6B24527D9FB691AB250
:10962000002ACADBBE68B546BE693D6933682C882E
:1096300070683189FE68123303EB04237C6903EB05
:10964000460304FB023200F063FFBD69288924371A
:10965000BD46BDE8F08FC6EB0A06C8EB06063244ED
:109660001FFA89F692B2B245FA61D7D8FC69BD6893
:1096700022B2002AAD46D7DA4FF0FF30E7E7BB68E9
:109680004FF0FF309D46E2E7AFF30080AFF300807C
:10969000164B70B44FF0FF3500241E8816B31E79A8
:1096A000002E08BF25460134082C03F10C03F4D129
:1096B0006B1C19D005EB45050D4EAC0033194FF06E
:1096C000FF359880088835510021D880D9721278EA
:1096D000120744BF0122DA724FF6FF721A81184650
:1096E00070BC70472546E5E70020F9E79A66002040
:1096F00094660020AFF30080AFF30080AFF30080EA
:109700002DE9F041002486B0324E0746254603E09D
:10971000602C05F101051ED03319DFF8B880DA8816
:109720000C34002AF4D09A8801A81202122100F009
:10973000EFFE9DF80D3003F03603022BE8D13846DA
:109740000DF10E01FAF774FE0028E1D105EB450595
:1097500008EB850024E0204E204BF61AC6F30F26B6
:109760000024B4424FEA042201A84FF0120116D29D
:1097700000F0CEFE9DF80D5005F03603022B18D0F8
:10978000A907BDF80A300ED404F5007404F47E4431
:10979000B4424FEA042201A84FF01201E8D300209E
:1097A00006B0BDE8F081AA064CBF0134E418A4B2AB
:1097B000D7E738460DF10E01FAF73AFE0028DFD15F
:1097C00020460DF10A010DF10D02FFF761FF06B011
:1097D000BDE8F08194660020000010080000080831
:1097E000F0B5050287B004460F4601A816461221BF
:1097F0002A4600F08DFE9DF80D3003F00600022889
:1098000046D103F0200000F0FF01002840D10FB145
:109810001A0733D443F00503122101A82A468DF814
:109820000D3000F08DFE1C4B002183F8C21066B194
:10983000084603F160015A6E22B19288A24208BF25
:1098400083F868000C338B42F5D1144B4FF6FF754B
:1098500003F16001002002E00C338B420BD033F89F
:10986000062CA242F8D123F8065C187023F8040CE9
:109870000C338B42F3D1002007B0F0BD0A46BDF88F
:109880000400FFF7ADFF002802DB9DF80D30C1E7B3
:109890004FF0FF3007B0F0BD946600209E660020B8
:1098A0002DE9F04F8FB004910593039022B9FFF793
:1098B00027FF002840F0B5800498FFF7A1FD4FF680
:1098C000FF739842054629D0059B43F0030E039B86
:1098D00000249F889E790B941B688DF82DE009A8C1
:1098E00012212A02DDF810E00A94ADF83440099400
:1098F000ADF82AE0ADF832708DF83460CDF82E3036
:1099000000F01EFE28460DF12A010DF12D02FFF791
:10991000BFFE00B104600FB0BDE8F08F8B4991F835
:10992000C230002B7DD18A498A4A8A1A520C02928F
:109930006AD0894E019399464FF40075002407942C
:10994000ADF82040B9F1000F7DD1844A86F800902F
:10995000A2F800904B464C46CA4601990B441FFAA8
:1099600083FBAB4527D209AF4FF000080BE05B0744
:1099700040F1AD80BDF82A309B441C441FFA8BFB9C
:10998000A4B25D4517D94FEA0B223846122100F0E8
:10999000BFFD9DF82D3086F8008003F00602022AF4
:1099A00043D09A06E3D50BF1010B1FFA8BFB013470
:1099B0005D45A4B2E7D8AAF500722244674933781E
:1099C00092B20A80002A6FD0002B00F08F80C4F57D
:1099D00000739BB20022ADF81E40ADF81C30ADF80C
:1099E0002020002B4DD0019B09F1010903F5007BDC
:1099F000029B1FFA89F905F500751FFA8BFB4B4591
:109A0000CDF804B0ADB299D80498FFF7F9FC4FF641
:109A1000FF73984205467FF457AF4C49012381F804
:109A2000C23000200FB0BDE8F08F9906BBD4BDF85E
:109A30002A309B449A44484B01221FFA8BFB1FFAA1
:109A40008AFA1A709DE733783BB1444BB3F800A013
:109A5000BAF5007F32D253467FE7DFF800E1BEF867
:109A60000040B4F5007F6DD3A4F5007292B2B2F558
:109A7000007F4FF40073AEF80020ADF81E3028BF11
:109A80000022BDF81E30002BADD0DFF8C0E00199F8
:109A9000BEF8C0308B4288BFAEF8C010A2BB5FFAE0
:109AA00089F000F06DFD9EE71346ADF82030ADF86B
:109AB0001CA0ADF81E405346002292E7AAF5007A9A
:109AC0004FF40072A3F800A0ADF81C208BE7CBEB9D
:109AD00005039BB203EB0A02A2F500722244DFF8F1
